:020000040800F2
:1000000000500020D5060008190600081F06000849
:10001000250600082B060008310600080000000035
:100020000000000000000000000000003131000866
:1000300037060008000000001133000843060008DE
:100040001D0700081D0700081D0700081D07000800
:100050001D0700081D0700081D0700081D070008F0
:100060001D0700081D0700081D0700081D070008E0
:100070001D0700081D0700081D0700081D070008D0
:100080001D0700081D0700081D0700081D070008C0
:100090001D0700081D0700081D0700081D070008B0
:1000A0001D0700081D0700081D0700081D070008A0
:1000B0001D0700081D0700081D0700081D07000890
:1000C0001D0700081D0700081D0700081D07000880
:1000D0001D0700081D0700081D0700081D07000870
:1000E0001D0700081D0700081D070008000000008C
:1000F0000000000000000000000000000000000000
:0C01000000000000000000005FF808F1A3
:1001100010B5054C237833B9044B13B10448AFF341
:1001200000800123237010BD60000020000000004B
:100130001441000808B5034B1BB103490348AFF352
:10014000008008BD00000000640000201441000889
:10015000034613F8012B002AFBD1181A0138704707
:1001600080B485B000AFF860B9607A60FB68064A79
:100170001A60BB68054A1A607B6880221A6000BF5B
:100180001437BD4680BC70477C000020D0000020A2
:10019000B0B59CB000AF00F0C3FA00F0D3F800F0A7
:1001A00037F900F00BF900220421052001F04CFD85
:1001B0000346544A1360534B1B68002B0DD1524B1E
:1001C000BB66B86EFFF7C4FF03469AB24FF0FF3329
:1001D000B96E4E4801F0CEF90CE04D4BFB66F86E5F
:1001E000FFF7B6FF03469AB24FF0FF33F96E474868
:1001F00001F0C0F900220C21022001F025FD034688
:10020000444A1360434B1B68002B0DD1424B3B66A5
:10021000386EFFF79DFF03469AB24FF0FF33396EF9
:100220003A4801F0A7F90CE03C4B7B66786EFFF78B
:100230008FFF03469AB24FF0FF33796E334801F0D7
:1002400099F900220821052001F0FEFC0346344AFA
:100250001360334B1B68002B0DD1324BBB65B86D5F
:10026000FFF776FF03469AB24FF0FF33B96D274888
:1002700001F080F90CE02C4BFB65F86DFFF768FF8F
:1002800003469AB24FF0FF33F96D204801F072F93E
:10029000264B07F13C041D460FCD0FC495E807001F
:1002A00084E8070007F13C030021184601F054FBE5
:1002B00003461F4A13601F4B07F120041D460FCD54
:1002C0000FC495E8070084E8070007F12003002128
:1002D000184601F041FB0346174A1360174B3C1DBB
:1002E0001D460FCD0FC495E8070084E807003B1DAD
:1002F0000021184601F030FB0346114A136001F05B
:1003000024FBFEE7240300202C410008D00200203B
:10031000484100082803002070410008944100086B
:100320002C030020BC410008E44100081C420008E6
:1003300018030020404200081C0300206C42000803
:100340002003002080B590B000AF07F118032822E9
:100350000021184603F04CFA3B1D00221A605A6037
:100360009A60DA601A610223BB610123BB62102329
:10037000FB6200237B6307F11803184600F09AFC28
:100380000346002B01D000F0CDF80F237B60002343
:10039000BB600023FB6000233B6100237B613B1DAE
:1003A0000021184600F008FF0346002B01D000F0A2
:1003B000B9F800BF4037BD4680BD000080B500AF32
:1003C000114B124A1A60104B4FF4E1325A600E4B37
:1003D00000229A600C4B0022DA600B4B00221A615B
:1003E000094B0C225A61084B00229A61064B0022ED
:1003F000DA61054801F06EF80346002B01D000F0E9
:1004000091F800BF80BD00BFD0020020003801403D
:1004100080B485B000AF144B9B69134A43F01003BE
:100420009361114B9B6903F01003FB60FB680E4B5B
:100430009B690D4A43F0200393610B4B9B6903F0CA
:100440002003BB60BB68084B9B69074A43F0040369
:100450009361054B9B6903F004037B607B6800BFDD
:100460001437BD4680BC70470010024080B588B08C
:1004700000AF78600B4BFB6078233B616423FB612A
:10048000094B186807F10C010023FA6901F036FCEA
:100490000346012B02D1054B7B61F1E7044BBB61A5
:1004A000EEE700BF984300082C030020A04300089B
:1004B000BC43000880B594B000AF7860124B1B6855
:1004C00007F144016422184601F016FDF864FB6C44
:1004D000012BF3D17A6CBB6C07F10C000B4903F0D4
:1004E00067F907F10C031846FFF732FE03469AB28C
:1004F00007F10C014FF0FF33054801F03BF83220C3
:1005000002F07EF8DAE700BF2C030020D443000895
:10051000D002002080B582B000AF7860012001F0E9
:1005200067FAFBE780B400AF72B600BFFEE70000D9
:1005300080B582B000AF114B9B69104A43F00103B4
:1005400093610E4B9B6903F001037B607B680B4B4F
:10055000DB690A4A43F08053D361084BDB6903F03F
:1005600080533B603B6800220F216FF0010000F0D8
:10057000F4F900BF0837BD4680BD00BF001002403F
:1005800080B588B000AF786007F1100300221A60D0
:100590005A609A60DA607B681B681C4A934231D1CA
:1005A0001B4B9B691A4A43F480439361184B9B6928
:1005B00003F48043FB60FB68154B9B69144A43F0CE
:1005C00004039361124B9B6903F00403BB60BB6897
:1005D0004FF400733B6102237B610323FB6107F14E
:1005E000100319460B4800F0E1F94FF480633B61BA
:1005F00000237B610023BB6107F110031946054806
:1006000000F0D4F900BF2037BD4680BD003801405E
:10061000001002400008014080B400AFFEE780B443
:1006200000AFFEE780B400AFFEE780B400AFFEE7A6
:1006300080B400AFFEE780B400AF00BFBD4680BC11
:10064000704780B500AF00F0B1F802F009FC034636
:10065000012B01D002F080FE00BF80BD80B586B0C6
:1006600000AF7860144A154BD31A7B617B693B61FC
:10067000134B1B68002B02D1114B124A1A60104B0E
:100680001A687B6813443A699A4207D203F0B8F8B3
:1006900003460C221A604FF0FF3309E0084B1B6839
:1006A000FB60074B1A687B681344054A1360FB68BC
:1006B00018461837BD4680BD0050002000040000D9
:1006C00030030020D811002080B400AF00BFBD4629
:1006D00080BC7047FFF7F8FF0B480C490C4A002319
:1006E00002E0D458C4500433C4188C42F9D3094AE8
:1006F000094C002301E013600432A242FBD303F053
:1007000085F8FFF745FD70470000002060000020DD
:100710005C44000860000020D4110020FEE70000C7
:1007200080B500AF084B1B68074A43F01003136005
:10073000032000F007F90F2000F008F8FFF7F8FE9B
:100740000023184680BD00BF0020024080B582B063
:1007500000AF7860124B1A68124B1B7819464FF4A1
:100760007A73B3FBF1F3B2FBF3F3184600F011F91F
:100770000346002B01D001230EE07B680F2B0AD823
:10078000002279684FF0FF3000F0E7F8064A7B68F6
:100790001360002300E0012318460837BD4680BDE2
:1007A00000000020080000200400002080B400AFFA
:1007B000054B1B781A46054B1B681344034A13600C
:1007C00000BFBD4680BC70470800002034030020F5
:1007D00080B400AF024B1B681846BD4680BC704712
:1007E0003403002080B485B000AF78607B6803F0EC
:1007F0000703FB600C4BDB68BB60BA684FF6FF0376
:100800001340BB60FB681A02BB68134343F0BF632D
:1008100043F40033BB60044ABB68D36000BF1437A5
:10082000BD4680BC704700BF00ED00E080B400AF63
:10083000044BDB681B0A03F007031846BD4680BC67
:10084000704700BF00ED00E080B483B000AF034606
:100850003960FB7197F90730002B0ADB3B68DAB28D
:100860000C4997F907301201D2B20B4483F80023E8
:100870000AE03B68DAB20849FB7903F00F03043B56
:100880001201D2B20B441A7600BF0C37BD4680BCB1
:10089000704700BF00E100E000ED00E080B489B0E7
:1008A00000AFF860B9607A60FB6803F00703FB6192
:1008B000FB69C3F10703042B28BF0423BB61FB6959
:1008C0000433062B02D9FB69033B00E000237B6164
:1008D0004FF0FF32BB6902FA03F3DA43BB681A40F8
:1008E0007B699A404FF0FF317B6901FA03F3D943EA
:1008F0007B680B40134318462437BD4680BC7047C5
:1009000080B582B000AF78607B68013BB3F1807F37
:1009100001D301230FE00A4A7B68013B53600F219A
:100920004FF0FF30FFF790FF054B00229A60044B19
:1009300007221A60002318460837BD4680BD00BF55
:1009400010E000E080B582B000AF78607868FFF713
:1009500049FF00BF0837BD4680BD80B586B000AFF7
:100960000346B9607A60FB7300237B61FFF75EFF8B
:1009700078617A68B9687869FFF790FF024697F95D
:100980000F3011461846FFF75FFF00BF1837BD460E
:1009900080BD80B582B000AF78607868FFF7B0FFA7
:1009A000034618460837BD4680BD000080B48BB0B2
:1009B00000AF7860396000237B6200233B6269E10D
:1009C00001227B6A02FA03F3FB613B681B68FA6948
:1009D0001340BB61BA69FB699A4240F058813B6899
:1009E0005B689A4A93425ED0984A934275D8984A77
:1009F000934258D0964A93426FD8964A934252D027
:100A0000944A934269D8944A93424CD0924A934272
:100A100063D8924A934246D0904A93425DD8122BB3
:100A20002AD8122B59D801A252F823F0A70A00089D
:100A3000810A0008930A0008D50A0008DB0A0008AA
:100A4000DB0A0008DB0A0008DB0A0008DB0A0008F2
:100A5000DB0A0008DB0A0008DB0A0008DB0A0008E2
:100A6000DB0A0008DB0A0008DB0A0008DB0A0008D2
:100A7000890A00089D0A0008794A934213D02CE0A5
:100A80003B68DB683B6229E03B68DB6804333B6220
:100A900024E03B68DB6808333B621FE03B68DB68AF
:100AA0000C333B621AE03B689B68002B02D10423A5
:100AB0003B6213E03B689B68012B05D108233B6236
:100AC0007B68FA691A6109E008233B627B68FA696E
:100AD0005A6103E000233B6200E000BFBB69FF2BCB
:100AE00001D87B6801E07B6804337B61BB69FF2B25
:100AF00002D87B6A9B0002E07B6A083B9B003B615B
:100B00007B691A680F213B6901FA03F3DB431A4042
:100B1000396A3B6901FA03F31A437B691A603B683F
:100B20005B6803F08053002B00F0B1804D4B9B6954
:100B30004C4A43F0010393614A4B9B6903F0010364
:100B4000BB60BB68484A7B6A9B08023352F823307B
:100B5000FB607B6A03F003039B000F2202FA03F39E
:100B6000DB43FA681340FB607B68404A934213D032
:100B70007B683F4A93420DD07B683E4A934207D040
:100B80007B683D4A934201D1032306E0042304E03D
:100B9000022302E0012300E000237A6A02F003024C
:100BA00092009340FA681343FB602F497B6A9B08CD
:100BB0000233FA6841F823203B685B6803F4801332
:100BC000002B06D02D4B9A682C49BB6913438B60D0
:100BD00006E02A4B9A68BB69DB43284913408B60C7
:100BE0003B685B6803F40013002B06D0234BDA68E4
:100BF0002249BB691343CB6006E0204BDA68BB692E
:100C0000DB431E491340CB603B685B6803F4003351
:100C1000002B06D0194B5A681849BB6913434B6027
:100C200006E0164B5A68BB69DB43144913404B601E
:100C30003B685B6803F48033002B21D00F4B1A68AC
:100C40000E49BB6913430B6021E000BF0000321066
:100C500000003110000022100000211000001210CE
:100C60000000111000100240000001400008014087
:100C7000000C01400010014000140140000401403C
:100C80000B4B1A68BB69DB43094913400B607B6A55
:100C900001337B623B681A687B6A22FA03F3002BFC
:100CA0007FF48EAE00BF00BF2C37BD4680BC7047BE
:100CB0000004014080B586B000AF78607B68002BEF
:100CC00001D1012372E27B681B6803F00103002B52
:100CD00000F08780924B5B6803F00C03042B0CD070
:100CE0008F4B5B6803F00C03082B12D18C4B5B68B5
:100CF00003F48033B3F5803F0BD1894B1B6803F4B9
:100D00000033002B6CD07B685B68002B68D101231B
:100D10004CE27B685B68B3F5803F06D1804B1B6873
:100D20007F4A43F4803313602EE07B685B68002BBE
:100D30000CD17B4B1B687A4A23F480331360784BC9
:100D40001B68774A23F4802313601DE07B685B688F
:100D5000B3F5A02F0CD1724B1B68714A43F480236A
:100D600013606F4B1B686E4A43F4803313600BE0D3
:100D70006B4B1B686A4A23F480331360684B1B6813
:100D8000674A23F4802313607B685B68002B13D0D1
:100D9000FFF71EFD386108E0FFF71AFD02463B69C8
:100DA000D31A642B01D9032300E25D4B1B6803F4C3
:100DB0000033002BF0D014E0FFF70AFD386108E0A3
:100DC000FFF706FD02463B69D31A642B01D90323C2
:100DD000ECE1534B1B6803F40033002BF0D100E02F
:100DE00000BF7B681B6803F00203002B63D04C4BF1
:100DF0005B6803F00C03002B0BD0494B5B6803F0DE
:100E00000C03082B1CD1464B5B6803F48033002B8A
:100E100016D1434B1B6803F00203002B05D07B68FF
:100E20001B69012B01D00123C0E13D4B1B6823F05E
:100E3000F8027B685B69DB00394913430B603AE0D9
:100E40007B681B69002B20D0364B01221A60FFF70C
:100E5000BFFC386108E0FFF7BBFC02463B69D31AD0
:100E6000022B01D90323A1E12D4B1B6803F00203E0
:100E7000002BF0D02A4B1B6823F0F8027B685B69DB
:100E8000DB00274913430B6015E0264B00221A6054
:100E9000FFF79EFC386108E0FFF79AFC02463B69C9
:100EA000D31A022B01D9032380E11D4B1B6803F0E9
:100EB0000203002BF0D17B681B6803F00803002BB2
:100EC0003AD07B689B69002B19D0174B01221A601E
:100ED000FFF77EFC386108E0FFF77AFC02463B69C9
:100EE000D31A022B01D9032360E10D4B5B6A03F097
:100EF0000203002BF0D0012000F0CEFA1CE00A4BD8
:100F000000221A60FFF764FC38610FE0FFF760FC15
:100F100002463B69D31A022B08D9032346E100BFDE
:100F2000001002400000424280044242924B5B6A41
:100F300003F00203002BE9D17B681B6803F0040374
:100F4000002B00F0A6800023FB758B4BDB6903F0C0
:100F50008053002B0DD1884BDB69874A43F08053C7
:100F6000D361854BDB6903F08053BB60BB68012311
:100F7000FB75824B1B6803F48073002B18D17F4BE9
:100F80001B687E4A43F480731360FFF721FC3861CD
:100F900008E0FFF71DFC02463B69D31A642B01D918
:100FA000032303E1754B1B6803F48073002BF0D01F
:100FB0007B68DB68012B06D16F4B1B6A6E4A43F0DE
:100FC000010313622DE07B68DB68002B0CD16A4BB8
:100FD0001B6A694A23F001031362674B1B6A664A66
:100FE00023F0040313621CE07B68DB68052B0CD143
:100FF000614B1B6A604A43F0040313625E4B1B6A39
:101000005D4A43F0010313620BE05B4B1B6A5A4AD3
:1010100023F001031362584B1B6A574A23F0040361
:1010200013627B68DB68002B15D0FFF7D1FB3861BA
:101030000AE0FFF7CDFB02463B69D31A41F2883242
:10104000934201D90323B1E04B4B1B6A03F0020327
:10105000002BEED014E0FFF7BBFB38610AE0FFF78E
:10106000B7FB02463B69D31A41F28832934201D959
:1010700003239BE0404B1B6A03F00203002BEED1DD
:10108000FB7D012B05D13C4BDB693B4A23F08053B0
:10109000D3617B68DB69002B00F08780364B5B688F
:1010A00003F00C03082B61D07B68DB69022B46D16F
:1010B000334B00221A60FFF78BFB386108E0FFF723
:1010C00087FB02463B69D31A022B01D903236DE04B
:1010D000294B1B6803F00073002BF0D17B681B6A5F
:1010E000B3F5803F08D1244B5B6823F400327B6862
:1010F0009B68214913434B601F4B5B6823F47412B8
:101100007B68196A7B685B6A0B431B4913434B601E
:101110001B4B01221A60FFF75BFB386108E0FFF709
:1011200057FB02463B69D31A022B01D903233DE04A
:10113000114B1B6803F00073002BF0D035E0104B0F
:1011400000221A60FFF744FB386108E0FFF740FB1C
:1011500002463B69D31A022B01D9032326E0064B32
:101160001B6803F00073002BF0D11EE07B68DB6985
:10117000012B07D1012319E000100240007000404C
:10118000600042420B4B5B68FB60FB6803F48032FB
:101190007B681B6A9A4206D1FB6803F470127B6875
:1011A0005B6A9A4201D0012300E0002318461837F9
:1011B000BD4680BD0010024080B584B000AF7860AD
:1011C00039607B68002B01D10123D0E06A4B1B689A
:1011D00003F007033A689A4210D9674B1B6823F063
:1011E000070265493B6813430B60634B1B6803F0C0
:1011F00007033A689A4201D00123B8E07B681B6874
:1012000003F00203002B20D07B681B6803F004036B
:10121000002B05D0594B5B68584A43F4E063536098
:101220007B681B6803F00803002B05D0534B5B68F9
:10123000524A43F460535360504B5B6823F0F00212
:101240007B689B684D4913434B607B681B6803F0C8
:101250000103002B40D07B685B68012B07D1474B13
:101260001B6803F40033002B15D101237FE07B685A
:101270005B68022B07D1414B1B6803F00073002B06
:1012800009D1012373E03D4B1B6803F00203002BDF
:1012900001D101236BE0394B5B6823F003027B68CB
:1012A0005B68364913434B60FFF792FAF8600AE037
:1012B000FFF78EFA0246FB68D31A41F28832934256
:1012C00001D9032353E02D4B5B6803F00C027B68CC
:1012D0005B689B009A42EBD1274B1B6803F0070326
:1012E0003A689A4210D2244B1B6823F00702224925
:1012F0003B6813430B60204B1B6803F007033A68FD
:101300009A4201D0012332E07B681B6803F004039A
:10131000002B08D0194B5B6823F4E0627B68DB6824
:10132000164913434B607B681B6803F00803002BCE
:1013300009D0124B5B6823F460527B681B69DB00A9
:101340000E4913434B6000F021F802460B4B5B68DB
:101350001B0903F00F030A49CB5C22FA03F3094A85
:101360001360094B1B681846FFF7F0F90023184675
:101370001037BD4680BD00BF002002400010024073
:10138000F4430008000000200400002080B487B06F
:1013900000AF0023FB600023BB6000237B610023C0
:1013A0007B6000233B611E4B5B68FB60FB6803F0C6
:1013B0000C03042B02D0082B03D027E0194B3B6110
:1013C00027E0FB689B0C03F00F03174AD35C7B609C
:1013D000FB6803F48033002B10D0114B5B685B0C6F
:1013E00003F00103114AD35CBB607B680D4A03FB29
:1013F00002F2BB68B2FBF3F37B6104E07B680C4A4A
:1014000002FB03F37B617B693B6102E0054B3B61BF
:1014100000BF3B6918461C37BD4680BC704700BF03
:101420000010024000127A000C4400081C4400081E
:1014300000093D0080B400AF024B1B681846BD4652
:1014400080BC70470000002080B500AFFFF7F2FFBE
:101450000246054B5B681B0A03F007030349CB5C9C
:1014600022FA03F3184680BD00100240044400082D
:1014700080B500AFFFF7DEFF0246054B5B68DB0A75
:1014800003F007030349CB5C22FA03F3184680BD3F
:10149000001002400444000880B485B000AF7860BA
:1014A0000A4B1B680A4AA2FB03235B0A7A6802FB09
:1014B00003F3FB6000BFFB685A1EFA60002BF9D1F2
:1014C00000BF00BF1437BD4680BC7047000000203D
:1014D000D34D621080B582B000AF78607B68002B7E
:1014E00001D1012342E07B6893F84130DBB2002B4D
:1014F00006D17B68002283F840207868FFF740F827
:101500007B68242283F841207B681B68DA687B684B
:101510001B6822F40052DA60786800F071F97B6889
:101520001B681A697B681B6822F490421A617B6809
:101530001B685A697B681B6822F02A025A617B6823
:101540001B68DA687B681B6842F40052DA607B68CB
:1015500000225A647B68202283F841207B68202285
:1015600083F842207B6800225A630023184608371C
:10157000BD4680BD80B58AB002AFF860B9603B60FF
:101580001346FB8000237B61FB6893F84130DBB29C
:10159000202B75D1BB68002B02D0FB88002B01D11A
:1015A00001236EE0FB6800225A64FB68212283F865
:1015B0004120FFF70DF97861FB68FA889A84FB688F
:1015C000FA88DA84FB689B68B3F5805F08D1FB6812
:1015D0001B69002B04D10023FB61BB68BB6103E0E6
:1015E000BB68FB610023BB612EE03B6800937B6915
:1015F00000228021F86800F048F80346002B05D04F
:10160000FB68202283F8412003233AE0FB69002B8A
:101610000BD1BB691B881A46FB681B68C2F3080222
:101620005A60BB690233BB6107E0FB691A78FB684B
:101630001B685A60FB690133FB61FB68DB8C9BB262
:10164000013B9AB2FB68DA84FB68DB8C9BB2002B0F
:10165000CBD13B6800937B6900224021F86800F001
:1016600014F80346002B05D0FB68202283F84120A4
:10167000032306E0FB68202283F84120002300E0DA
:10168000022318462037BD4680BD80B586B000AF26
:10169000F860B9603B601346FB713BE03B6AB3F115
:1016A000FF3F37D0FFF794F802463B68D31A3A6AF7
:1016B0009A4202D33B6A002B01D103233AE0FB6834
:1016C0001B68DB6803F00403002B23D0BB68802B6E
:1016D00020D0BB68402B1DD0FB681B681B6803F043
:1016E0000803082B16D100237B61FB681B681B686D
:1016F0007B61FB681B685B687B617B69F86800F055
:101700001DF8FB6808225A64FB68002283F8402019
:1017100001230FE0FB681B681A68BB681340BA68B6
:101720009A420CBF01230023DBB21A46FB799A428E
:10173000B4D0002318461837BD4680BD80B495B09C
:1017400000AF78607B681B680C337B637B6B53E86E
:10175000003F3B633B6B23F49073FB647B681B6827
:101760000C33FA6C3A64FB63F96B3A6C41E8002382
:10177000BB63BB6B002BE5D17B681B6814333B62FA
:101780003B6A53E8003FFB61FB6923F00103BB6444
:101790007B681B681433BA6CFA62BB62B96AFA6A76
:1017A00041E800237B627B6A002BE5D17B681B6BE1
:1017B000012B19D17B681B680C33FB60FB6853E875
:1017C000003FBB60BB6823F010037B647B681B6831
:1017D0000C337A6CBA617B617969BA6941E800239C
:1017E0003B613B69002BE5D17B68202283F84220D6
:1017F0007B6800221A6300BF5437BD4680BC704727
:1018000080B584B000AF78607B681B681B6923F4E7
:1018100040517B68DA687B681B680A431A617B6801
:101820009A687B681B691A437B685B691343BB60DA
:101830007B681B68DB6823F4B05323F00C037A68E1
:101840001268B9680B43D3607B681B685B6923F43B
:1018500040717B689A697B681B680A435A617B68A0
:101860001B682C4A934203D1FFF702FEF86002E0A6
:10187000FFF7EAFDF860FA6813469B0013449A00EC
:101880001A447B685B689B00B2FBF3F3224AA2FB1D
:1018900003235B091901FA6813469B0013449A005D
:1018A0001A447B685B689B00B2FBF3F21A4BA3FB04
:1018B00002035B09642000FB03F3D31A1B013233DC
:1018C000154AA2FB03235B0903F0F0031944FA68ED
:1018D00013469B0013449A001A447B685B689B0084
:1018E000B2FBF3F20C4BA3FB02035B09642000FB89
:1018F00003F3D31A1B013233074AA2FB03235B090C
:1019000003F00F027B681B680A449A6000BF10371F
:10191000BD4680BD003801401F85EB5180B485B0C5
:1019200000AF0346FB800023FB60B7F90630842B31
:1019300005D0B7F90620FB6813440333FB60FB684E
:1019400018461437BD4680BC704780B500AF00F024
:101950008BFE0023184680BDF0B589B004AF7860D7
:1019600039607B685B69002B20D07B689B69002B0A
:101970001CD07B685C687B681D687B681E697B681F
:10198000B3F908301846FFF7C9FF01467B685B6969
:101990007A6892690292019300913B683246294627
:1019A000204600F099FC0346FB601CE07B685C6805
:1019B0007B681D687B681B699EB27B68B3F9083041
:1019C0001846FFF7ABFF024607F10C0301930092A4
:1019D0003B6832462946204600F0DBFC0346012BDB
:1019E00001D0002300E0FB6818461437BD46F0BD67
:1019F00080B584B000AF78607B68FB60FB68002B2B
:101A000001D0FB6800E00123184600F0F9FD002337
:101A100018461037BD4680BD80B483B000AF7860F3
:101A20007B6803F108027B685A607B684FF0FF32E5
:101A30009A607B6803F108027B68DA607B6803F1D7
:101A400008027B681A617B6800221A6000BF0C37AD
:101A5000BD4680BC704780B483B000AF78607B68BF
:101A600000221A6100BF0C37BD4680BC704780B4AD
:101A700085B000AF786039607B685B68FB603B686D
:101A8000FA685A60FB689A683B689A60FB689B68D2
:101A90003A685A60FB683A689A603B687A681A61EB
:101AA0007B681B685A1C7B681A6000BF1437BD46F0
:101AB00080BC704780B485B000AF786039603B6807
:101AC0001B68BB60BB68B3F1FF3F03D17B681B6938
:101AD000FB600CE07B680833FB6002E0FB685B683E
:101AE000FB60FB685B681B68BA689A42F6D2FB68C9
:101AF0005A683B685A603B685B683A689A603B6822
:101B0000FA689A60FB683A685A603B687A681A61BA
:101B10007B681B685A1C7B681A6000BF1437BD467F
:101B200080BC704780B485B000AF78607B681B696B
:101B3000FB607B685B687A6892689A607B689B68E8
:101B40007A6852685A60FB685B687A689A4203D187
:101B50007B689A68FB685A607B6800221A61FB68A0
:101B60001B685A1EFB681A60FB681B68184614370E
:101B7000BD4680BC7047000080B584B000AF78607F
:101B800039607B68FB60FB68002B0AD14FF0500383
:101B900083F31188BFF36F8FBFF34F8FBB6000BF1C
:101BA000FEE701F05BFBFB681A68FB68DB6BF9681A
:101BB000096C01FB03F31A44FB689A60FB6800227E
:101BC0009A63FB681A68FB685A60FB681A68FB68CE
:101BD000DB6B013BF968096C01FB03F31A44FB68FA
:101BE000DA60FB68FF2283F84420FB68FF2283F859
:101BF00045203B68002B14D1FB681B69002B1AD0D1
:101C0000FB681033184600F06FFF0346002B12D01C
:101C10000C4B4FF080521A60BFF34F8FBFF36F8FA2
:101C200009E0FB6810331846FFF7F6FEFB68243323
:101C30001846FFF7F1FE01F041FB0123184610376B
:101C4000BD4680BD04ED00E080B58AB002AFF8600B
:101C5000B9601346FB71FB68002B0AD14FF05003AB
:101C600083F31188BFF36F8FBFF34F8F3B6100BFCA
:101C7000FEE7FB68BA6802FB03F3FB61FB694833CC
:101C8000184601F0ADFBB861BB69002B11D0BB69F0
:101C90007B617B6948337B61BB69002283F8462006
:101CA000FA79BB69009313467A69B968F86800F05D
:101CB00005F8BB6918462037BD4680BD80B584B0A5
:101CC00000AFF860B9607A60FB70BB68002B03D18D
:101CD000BB69BA691A6002E0BB697A681A60BB69BD
:101CE000FA68DA63BB69BA681A640121B869FFF758
:101CF00043FF00BF1037BD4680BD000080B58EB0E9
:101D000000AFF860B9607A603B6000237B63FB68DA
:101D10003B633B6B002B0AD14FF0500383F31188D8
:101D2000BFF36F8FBFF34F8FBB6200BFFEE7BB688F
:101D3000002B03D13B6B1B6C002B01D1012300E076
:101D40000023002B0AD14FF0500383F31188BFF317
:101D50006F8FBFF34F8F7B6200BFFEE73B68022BA4
:101D600003D13B6BDB6B012B01D1012300E000238E
:101D7000002B0AD14FF0500383F31188BFF36F8F0C
:101D8000BFF34F8F3B6200BFFEE701F069F80346E7
:101D9000002B02D17B68002B01D1012300E000233E
:101DA000002B0AD14FF0500383F31188BFF36F8FDC
:101DB000BFF34F8FFB6100BFFEE701F04FFA3B6BB3
:101DC0009A6B3B6BDB6B9A4202D33B68022B29D1A7
:101DD0003A68B968386B00F06FF9F8623B6B5B6A80
:101DE000002B10D03B6B2433184600F07DFE0346D9
:101DF000002B13D03F4B4FF080521A60BFF34F8F30
:101E0000BFF36F8F0AE0FB6A002B07D0394B4FF00E
:101E100080521A60BFF34F8FBFF36F8F01F04EFAFD
:101E2000012363E07B68002B03D101F047FA002314
:101E30005CE07B6B002B06D107F11403184600F021
:101E4000B5FE01237B6301F039FA00F06DFC01F06F
:101E500005FA3B6B93F844305BB2B3F1FF3F03D11B
:101E60003B6B002283F844203B6B93F845305BB218
:101E7000B3F1FF3F03D13B6B002283F8452001F013
:101E80001DFA3A1D07F114031146184600F0A4FE8E
:101E90000346002B24D1386B00F006FA0346002BD2
:101EA00018D03B6B10337A681146184600F0F8FDE5
:101EB000386B00F091F900F045FC0346002B7FF4ED
:101EC0007CAF0C4B4FF080521A60BFF34F8FBFF3C3
:101ED0006F8F72E7386B00F07FF900F033FC6CE72E
:101EE000386B00F079F900F02DFC002318463837E4
:101EF000BD4680BD04ED00E080B58CB000AFF86059
:101F0000B9607A600023FB62FB68BB62BB6A002B8E
:101F10000AD14FF0500383F31188BFF36F8FBFF3E3
:101F20004F8F3B6200BFFEE7BB68002B03D1BB6A4B
:101F30001B6C002B01D1012300E00023002B0AD1F0
:101F40004FF0500383F31188BFF36F8FBFF34F8FB0
:101F5000FB6100BFFEE700F083FF0346002B02D1C8
:101F60007B68002B01D1012300E00023002B0AD164
:101F70004FF0500383F31188BFF36F8FBFF34F8F80
:101F8000BB6100BFFEE701F069F9BB6A9B6B7B6236
:101F90007B6A002B1FD0B968B86A00F0F7F87B6A3B
:101FA0005A1EBB6A9A63BB6A1B69002B0FD0BB6ABF
:101FB0001033184600F098FD0346002B07D03D4B28
:101FC0004FF080521A60BFF34F8FBFF36F8F01F055
:101FD00075F9012369E07B68002B03D101F06EF9EC
:101FE000002362E0FB6A002B06D107F110031846BC
:101FF00000F0DCFD0123FB6201F060F900F094FBCE
:1020000001F02CF9BB6A93F844305BB2B3F1FF3FA7
:1020100003D1BB6A002283F84420BB6A93F84530A1
:102020005BB2B3F1FF3F03D1BB6A002283F84520C6
:1020300001F044F93A1D07F110031146184600F06B
:10204000CBFD0346002B23D1B86A00F017F90346F5
:10205000002B17D0BB6A24337A681146184600F06B
:102060001FFDB86A00F0B8F800F06CFB0346002BC7
:1020700089D1104B4FF080521A60BFF34F8FBFF3DE
:102080006F8F80E7B86A00F0A7F800F05BFB7AE793
:10209000B86A00F0A1F800F055FBB86A00F0EEF85D
:1020A0000346002B3FF46FAF002318463037BD4680
:1020B00080BD00BF04ED00E080B586B000AFF860E1
:1020C000B9607A6000237B61FB689B6B3B61FB68B6
:1020D0001B6C002B0DD1FB681B68002B4DD1FB68DE
:1020E0009B68184600F0DAFE7861FB6800229A606F
:1020F00043E07B68002B19D1FB685868FB681B6CB8
:102100001A46B96801F0A8FBFB685A68FB681B6CAB
:102110001A44FB685A60FB685A68FB689B689A42DD
:102120002BD3FB681A68FB685A6026E0FB68D86806
:10213000FB681B6C1A46B96801F08EFBFB68DA6815
:10214000FB681B6C5B421A44FB68DA60FB68DA6868
:10215000FB681B689A4207D2FB689A68FB681B6C95
:102160005B421A44FB68DA607B68022B05D13B694D
:10217000002B02D03B69013B3B613B695A1CFB6869
:102180009A637B6918461837BD4680BD80B582B01A
:1021900000AF786039607B681B6C002B18D07B68BF
:1021A000DA687B681B6C1A447B68DA607B68DA68E3
:1021B0007B689B689A4203D37B681A687B68DA6005
:1021C0007B68D9687B681B6C1A46386801F044FB51
:1021D00000BF0837BD4680BD80B584B000AF7860D1
:1021E00001F03CF87B6893F84530FB7311E07B68A5
:1021F0005B6A002B12D07B682433184600F074FC15
:102200000346002B01D000F049FDFB7B013BDBB214
:10221000FB7397F90F30002BE9DC00E000BF7B680F
:10222000FF2283F8452001F049F801F017F87B6898
:1022300093F84430BB7311E07B681B69002B12D00C
:102240007B681033184600F04FFC0346002B01D08A
:1022500000F024FDBB7B013BDBB2BB7397F90E3072
:10226000002BE9DC00E000BF7B68FF2283F84420FC
:1022700001F024F800BF1037BD4680BD80B584B0A2
:1022800000AF786000F0EAFF7B689B6B002B02D107
:102290000123FB6001E00023FB6001F00FF8FB6805
:1022A00018461037BD4680BD80B584B000AF786059
:1022B00000F0D4FF7B689A6B7B68DB6B9A4202D19B
:1022C0000123FB6001E00023FB6000F0F7FFFB68E7
:1022D00018461037BD4680BD80B58EB004AFF8609B
:1022E000B9607A603B607B6B002B0AD14FF05003E2
:1022F00083F31188BFF36F8FBFF34F8F3B6200BF33
:10230000FEE7BB6B002B0AD14FF0500383F311881B
:10231000BFF36F8FBFF34F8FFB6100BFFEE7542306
:102320003B613B69542B0AD04FF0500383F3118873
:10233000BFF36F8FBFF34F8FBB6100BFFEE73B69F9
:10234000BB6B002B1ED07B6B002B1BD0BB6B7B624F
:102350007B6A7A6B1A637B6A022283F8512000231E
:1023600003937B6A029307F1140301933B6B009381
:102370003B687A68B968F86800F050F8786A00F04D
:10238000D5F801E000237B617B6918462837BD46FC
:1023900080BD80B58CB004AFF860B9603B60134677
:1023A000FB80FB889B00184601F01AF878617B6976
:1023B000002B0ED0542001F013F8F861FB69002BBC
:1023C00003D0FB697A691A6305E0786901F0D4F8F3
:1023D00001E00023FB61FB69002B17D0FB690022A1
:1023E00083F85120FA8800230393FB690293FB6A68
:1023F0000193BB6A00933B68B968F86800F00EF877
:10240000F86900F093F80123BB6102E04FF0FF335D
:10241000BB61BB6918462037BD4680BD80B588B01A
:1024200000AFF860B9607A603B603B6B1A6B7B6809
:1024300003F18043013B9B001344BB61BB6923F064
:102440000703BB61BB6903F00703002B0AD04FF001
:10245000500383F31188BFF36F8FBFF34F8F7B61FE
:1024600000BFFEE7BB68002B1FD00023FB6112E01A
:10247000BA68FB69134419783A6BFB691344343327
:102480000A461A70BA68FB6913441B78002B06D001
:10249000FB690133FB61FB690F2BE9D900E000BF49
:1024A0003B6B002283F8432003E03B6B002283F860
:1024B0003420BB6A062B01D90623BB623B6BBA6A88
:1024C000DA623B6BBA6A5A643B6B00229A643B6BDC
:1024D00004331846FFF7BFFA3B6B18331846FFF773
:1024E000BAFA3B6B3A6B1A61BB6AC3F107023B6BEA
:1024F0009A613B6B3A6B5A623B6B0022DA643B6B2E
:10250000002283F850203A68F968B86900F0B2FDFB
:1025100002463B6B1A60FB6A002B02D0FB6A3A6BE7
:102520001A6000BF2037BD4680BD000080B582B074
:1025300000AF786000F092FE2A4B1B680133294AF5
:102540001360294B1B68002B09D1274A7B68136055
:10255000244B1B68012B10D100F0C4FB0DE0234B72
:102560001B68002B09D1204B1B68DA6A7B68DB6A89
:102570009A4202D81C4A7B6813601D4B1B680133CA
:102580001B4A13607B68DB6A01229A40194B1B6867
:102590001343184A13607B68DA6A13469B0013449E
:1025A0009B00154A1A447B68043319461046FFF70E
:1025B0005EFA00F083FE0D4B1B68002B0ED00A4B19
:1025C0001B68DA6A7B68DB6A9A4207D20B4B4FF0D2
:1025D00080521A60BFF34F8FBFF36F8F00BF083771
:1025E000BD4680BD3804002038030020440400208C
:1025F00054040020400400203C03002004ED00E0CF
:1026000080B584B000AF78600023FB607B68002B4E
:1026100017D0134B1B68002B0AD04FF0500383F3E5
:102620001188BFF36F8FBFF34F8FBB6000BFFEE712
:1026300000F07AF80021786800F0B6FC00F082F82B
:10264000F860FB68002B07D1064B4FF080521A60F0
:10265000BFF34F8FBFF36F8F00BF1037BD4680BDF4
:102660006004002004ED00E080B58AB004AF0023D0
:10267000BB6000237B603A46391D07F1080318460A
:10268000FDF76EFD39687B68BA68029201930023FA
:10269000009300230A461E491E48FFF71DFE03460D
:1026A0001D4A13601C4B1B68002B02D001237B6169
:1026B00001E000237B617B69012B16D14FF05003B1
:1026C00083F31188BFF36F8FBFF34F8F3B6100BF60
:1026D000124B4FF0FF321A60114B01221A60114B5E
:1026E00000221A6000F048FD0EE07B69B3F1FF3F65
:1026F0000AD14FF0500383F31188BFF36F8FBFF3FC
:102700004F8FFB6000BFFEE700BF1837BD4680BD9E
:10271000EC430008B52C00085C040020580400209D
:10272000440400203C04002080B400AF044B1B682C
:102730000133034A136000BFBD4680BC704700BF31
:102740006004002080B584B000AF0023FB6000234C
:10275000BB60414B1B68002B0AD14FF0500383F341
:102760001188BFF36F8FBFF34F8F3B6000BFFEE751
:1027700000F074FD384B1B68013B374A1360364B41
:102780001B68002B61D1354B1B68002B5DD02EE000
:10279000334BDB68DB68FB60FB6818331846FFF7D8
:1027A000C1F9FB6804331846FFF7BCF9FB68DB6A24
:1027B00001229A402B4B1B6813432A4A1360FB6883
:1027C000DA6A13469B0013449B00274A1A44FB68AD
:1027D000043319461046FFF74AF9FB68DA6A234BBF
:1027E0001B68DB6A9A4202D3214B01221A601C4B00
:1027F0001B68002BCCD1FB68002B01D000F010FB34
:102800001C4B1B687B607B68002B10D000F036F8F7
:102810000346002B02D0164B01221A607B68013B55
:102820007B607B68002BF1D1124B00221A60104BA9
:102830001B68002B09D00123BB600F4B4FF0805267
:102840001A60BFF34F8FBFF36F8F00F037FDBB6887
:1028500018461037BD4680BD6004002038040020B3
:10286000F8030020400400203C030020380300202F
:102870004C0400204804002004ED00E080B586B040
:1028800000AF00237B614E4B1B68002B40F08E8015
:102890004C4B1B6801333B614A4A3B6913603B69FF
:1028A000002B20D1484B1B681B68002B0AD04FF02F
:1028B000500383F31188BFF36F8FBFF34F8F3B60DB
:1028C00000BFFEE7404B1B68FB60404B1B683E4A65
:1028D00013603E4AFB6813603D4B1B6801333C4A62
:1028E000136000F09DFA3B4B1B683A699A4248D34B
:1028F000354B1B681B68002B04D1364B4FF0FF3261
:102900001A603EE0304B1B68DB68DB68BB60BB686D
:102910005B687B603A697B689A4203D22D4A7B6888
:1029200013602EE0BB6804331846FFF7FBF8BB6862
:102930009B6A002B04D0BB6818331846FFF7F2F8E7
:10294000BB68DB6A01229A40234B1B681343224A6F
:102950001360BB68DA6A13469B0013449B001F4A4E
:102960001A44BB68043319461046FFF780F8BB6869
:10297000DA6A1B4B1B68DB6A9A42B9D301237B617D
:10298000B6E7174B1B68DA6A144913469B001344D9
:102990009B000B441B68012B01D901237B61114B68
:1029A0001B68002B07D001237B6104E00E4B1B68E2
:1029B00001330D4A13607B6918461837BD4680BD48
:1029C000600400203C040020F0030020F4030020F9
:1029D0005004002058040020400400203C03002044
:1029E000380300204C0400204804002080B487B045
:1029F00000AF264B1B68002B03D0254B01221A6029
:102A00003FE0234B00221A60224B1B68FB60FB68EF
:102A1000B3FA83F3FB72FB7AC3F11F037B611E4998
:102A20007A6913469B0013449B000B441B68002BE0
:102A30000AD14FF0500383F31188BFF36F8FBFF3B8
:102A40004F8F7B6000BFFEE77A6913469B001344FB
:102A50009B00114A13443B613B695B685A683B69C0
:102A60005A603B695A683B6908339A4204D13B6912
:102A70005B685A683B695A603B695B68DB68074A78
:102A8000136000BF1C37BD4680BC70476004002047
:102A90004C040020400400203C03002038030020A8
:102AA00080B584B000AF786039607B68002B0AD1B4
:102AB0004FF0500383F31188BFF36F8FBFF34F8F35
:102AC000FB6000BFFEE7074B1B68183319467868A8
:102AD000FEF7F0FF0121386800F066FA00BF1037FA
:102AE000BD4680BD3803002080B586B000AF786059
:102AF0007B68DB68DB683B613B69002B0AD14FF0E8
:102B0000500383F31188BFF36F8FBFF34F8FFB60C8
:102B100000BFFEE73B6918331846FFF703F81D4B6B
:102B20001B68002B1CD13B6904331846FEF7FAFFE3
:102B30003B69DB6A01229A40174B1B681343164A14
:102B400013603B69DA6A13469B0013449B00134AE7
:102B50001A443B69043319461046FEF788FF05E026
:102B60003B69183319460E48FEF781FF3B69DA6A64
:102B70000C4B1B68DB6A9A4205D901237B610A4B27
:102B800001221A6001E000237B617B691846183737
:102B9000BD4680BD60040020400400203C030020AE
:102BA000F8030020380300204C04002080B483B0D8
:102BB00000AF7860064B1A687B681A60054B1A688C
:102BC0007B685A6000BF0C37BD4680BC704700BFB1
:102BD000500400203C04002080B588B000AF78602D
:102BE00039607B68002B0AD14FF0500383F31188C2
:102BF000BFF36F8FBFF34F8F3B6100BFFEE73B68B2
:102C0000002B0AD14FF0500383F31188BFF36F8F6D
:102C1000BFF34F8FFB6000BFFEE700F01FFB1D4BB3
:102C20001B68BB617B685B68BA69D31A7B613B68D0
:102C30001B68B3F1FF3F02D10023FB6123E07B68F7
:102C40001A68154B1B689A4207D07B685B68BA69A3
:102C50009A4202D30123FB6115E03B681B687A6945
:102C60009A420BD23B681A687B69D21A3B681A6099
:102C70007868FFF79BFF0023FB6104E03B680022BC
:102C80001A600123FB6100F019FBFB69184620372D
:102C9000BD4680BD3C0400205004002080B400AF3D
:102CA000034B01221A6000BFBD4680BC704700BFC5
:102CB0004C04002080B582B000AF786000F052F87C
:102CC000064B1B68012BF9D9054B4FF080521A6057
:102CD000BFF34F8FBFF36F8FF0E700BF3C030020BF
:102CE00004ED00E080B582B000AF00237B600CE013
:102CF0007A6813469B0013449B00124A13441846FB
:102D0000FEF78AFE7B6801337B607B68062BEFD978
:102D10000D48FEF781FE0D48FEF77EFE0C48FEF7DB
:102D20007BFE0C48FEF778FE0B48FEF775FE0B4B5A
:102D3000054A1A600A4B054A1A6000BF0837BD46AB
:102D400080BD00BF3C030020C8030020DC0300203E
:102D5000F80300200C04002024040020F0030020CD
:102D6000F403002080B582B000AF19E000F076FADD
:102D7000104BDB68DB687B607B6804331846FEF72A
:102D8000D1FE0D4B1B68013B0B4A13600B4B1B68BC
:102D9000013B0A4A136000F091FA786800F010F8DD
:102DA000064B1B68002BE1D100BF00BF0837BD46B2
:102DB00080BD00BF0C040020380400202004002047
:102DC00080B584B000AF78607B6893F85130002BF9
:102DD00008D17B681B6B184600F0CEFB786800F0CA
:102DE000CBFB18E07B6893F85130012B03D1786856
:102DF00000F0C2FB0FE07B6893F85130022B0AD041
:102E00004FF0500383F31188BFF36F8FBFF34F8FE1
:102E1000FB6000BFFEE700BF1037BD4680BD00006D
:102E200080B483B000AF0C4B1B681B68002B04D12F
:102E30000A4B4FF0FF321A6008E0074B1B68DB6853
:102E4000DB687B607B685B68044A136000BF0C37FB
:102E5000BD4680BC704700BFF0030020580400202E
:102E600080B483B000AF0B4B1B68002B02D1012351
:102E70007B6008E0084B1B68002B02D102237B60BB
:102E800001E000237B607B6818460C37BD4680BCA0
:102E9000704700BF440400206004002080B586B065
:102EA00000AF78607B683B6100237B617B68002B0F
:102EB0006ED03A4B1B683A699A420AD04FF05003E1
:102EC00083F31188BFF36F8FBFF34F8FFB6000BF99
:102ED000FEE73B699B6C002B0AD14FF0500383F354
:102EE0001188BFF36F8FBFF34F8FBB6000BFFEE74A
:102EF0003B699B6C5A1E3B699A643B69DA6A3B6981
:102F00005B6C9A4244D03B699B6C002B40D13B697F
:102F100004331846FEF706FE0346002B15D13B6925
:102F2000DA6A1F4913469B0013449B000B441B683D
:102F3000002B0AD13B69DB6A012202FA03F3DA4370
:102F4000184B1B681340174A13603B695A6C3B6966
:102F5000DA623B69DB6AC3F107023B699A613B694C
:102F6000DB6A01229A400F4B1B6813430D4A136022
:102F70003B69DA6A13469B0013449B00084A1A44D3
:102F80003B69043319461046FEF771FD01237B614E
:102F90007B6918461837BD4680BD00BF3803002046
:102FA0003C0300204004002080B584B000AF78606E
:102FB0003960294B1B68FB60284B1B68043318469B
:102FC000FEF7B0FD0346002B0BD1244B1B68DB6AD8
:102FD000012202FA03F3DA43214B1B681340204A13
:102FE00013607B68B3F1FF3F0AD13B68002B07D029
:102FF0001A4B1B68043319461A48FEF738FD26E0C1
:10300000FA687B681344BB60144B1B68BA685A604B
:10301000BA68FB689A4209D2134B1A680F4B1B68B7
:10302000043319461046FEF745FD10E00F4B1A68B1
:103030000A4B1B68043319461046FEF73BFD0C4B48
:103040001B68BA689A4202D2094ABB68136000BF83
:103050001037BD4680BD00BF3C040020380300206F
:103060004004002024040020F4030020F00300208A
:103070005804002080B485B000AFF860B9607A6071
:10308000FB68043BFB60FB684FF080721A60FB68D2
:10309000043BFB60BB6823F00102FB681A60FB681D
:1030A000043BFB60084AFB681A60FB68143BFB604A
:1030B0007A68FB681A60FB68203BFB60FB68184677
:1030C0001437BD4680BC7047CD30000880B485B051
:1030D00000AF00237B60124B1B68B3F1FF3F0AD0A7
:1030E0004FF0500383F31188BFF36F8FBFF34F8FFF
:1030F000FB6000BFFEE74FF0500383F31188BFF37E
:103100006F8FBFF34F8FBB6000BF00BF7B68002B8A
:10311000FCD000BF00BF1437BD4680BC704700BF65
:103120000C00002000000000000000000000000073
:10313000074B19680868B0E8F00F80F30988BFF3FF
:103140006F8F4FF0000080F311884EF00D0E704726
:103150003803002000BF00BF06480068006880F305
:10316000088862B661B6BFF34F8FBFF36F8F00DF81
:1031700000BF00BF08ED00E080B584B000AF324B67
:10318000FB60FB681B78DBB27B60FB68FF221A7078
:10319000FB681B78DBB2FB70FB78DBB203F05003FB
:1031A000DAB22A4B1A702A4B07221A6009E0284B20
:1031B0001B68013B264A1360FB78DBB25B00DBB285
:1031C000FB70FB78DBB203F08003802BEFD0204B49
:1031D0001B68C3F10703042B0AD04FF0500383F39D
:1031E0001188BFF36F8FBFF34F8FBB6000BFFEE747
:1031F000174B1B681B02164A1360154B1B6803F420
:10320000E063134A13607B68DAB2FB681A70114BF3
:103210001B68104A43F4700313600E4B1B680D4A81
:1032200043F07043136000F0B9F80B4B00221A60B2
:10323000FFF792FFFFF7DAFBFFF748FF002318467E
:103240001037BD4680BD00BF00E400E064040020EC
:103250006804002020ED00E00C00002080B483B062
:1032600000AF4FF0500383F31188BFF36F8FBFF3AC
:103270004F8F7B6000BF0F4B1B6801330D4A1360FB
:103280000C4B1B68012B0FD10B4B1B68DBB2002BC7
:103290000AD04FF0500383F31188BFF36F8FBFF351
:1032A0004F8F3B6000BFFEE700BF0C37BD4680BCC0
:1032B000704700BF0C00002004ED00E080B483B034
:1032C00000AF114B1B68002B0AD14FF0500383F362
:1032D0001188BFF36F8FBFF34F8F7B6000BFFEE796
:1032E000094B1B68013B084A1360074B1B68002B06
:1032F00005D100233B603B6883F3118800BF00BF0A
:103300000C37BD4680BC70470C0000200000000058
:10331000EFF30980BFF36F8F0D4B1A6820E9F00FB0
:1033200010602DE908404FF0500080F31188FFF73E
:103330005DFB4FF0000080F31188BDE8084019687C
:103340000868B0E8F00F80F30988BFF36F8F70470B
:103350003803002000BF00BF80B582B000AF4FF03F
:10336000500383F31188BFF36F8FBFF34F8F7B60E0
:1033700000BFFFF783FA0346002B03D0064B4FF044
:1033800080521A6000233B603B6883F3118800BFC2
:1033900000BF0837BD4680BD04ED00E080B400AF3B
:1033A0000A4B00221A600A4B00221A60094B1B6864
:1033B000094AA2FB03239B09084A013B1360034B04
:1033C00007221A6000BFBD4680BC704710E000E0D5
:1033D00018E000E000000020D34D621014E000E08F
:1033E00080B58AB000AF78600023FB61FFF79CF9DD
:1033F0005B4B1B68002B01D100F020F9594B1A6878
:103400007B681340002B40F093807B68002B1DD01D
:1034100008227B6813447B607B6803F00703002B62
:1034200014D07B6823F0070308337B607B6803F0CC
:103430000703002B0AD04FF0500383F31188BFF32A
:103440006F8FBFF34F8F7B6100BFFEE77B68002B60
:103450006ED0454B1B687A689A4269D8434B3B62F1
:10346000424B1B687B6204E07B6A3B627B6A1B68A1
:103470007B627B6A5B687A689A4203D97B6A1B68C5
:10348000002BF1D1364B1B687A6A9A4250D03B6AC6
:103490001B6808221344FB617B6A1A683B6A1A6046
:1034A0007B6A5A687B68D21A08235B009A421FD94C
:1034B0007A6A7B681344BB61BB6903F00703002B86
:1034C0000AD04FF0500383F31188BFF36F8FBFF31F
:1034D0004F8F3B6100BFFEE77B6A5A687B68D21A58
:1034E000BB695A607B6A7A685A60B86900F008F96B
:1034F0001D4B1A687B6A5B68D31A1B4A13601A4B10
:103500001A681B4B1B689A4203D2174B1B68184A58
:1035100013607B6A5A68134B1B681A437B6A5A60B4
:103520007B6A00221A60134B1B680133114A136037
:10353000FFF708F9FB6903F00703002B0AD04FF0EF
:10354000500383F31188BFF36F8FBFF34F8FFB607E
:1035500000BFFEE7FB6918462837BD4680BD00BFA7
:103560007410002088100020781000206C100020BB
:103570007C1000208010002080B586B000AF7860FD
:103580007B687B617B68002B4DD008235B427A69A6
:1035900013447B617B693B613B695A68244B1B6820
:1035A0001340002B0AD14FF0500383F31188BFF36F
:1035B0006F8FBFF34F8FFB6000BFFEE73B691B6857
:1035C000002B0AD04FF0500383F31188BFF36F8FA5
:1035D000BFF34F8FBB6000BFFEE73B695A68144BD7
:1035E0001B681340002B1ED03B691B68002B1AD1AF
:1035F0003B695A680E4B1B68DB431A403B695A60B3
:10360000FFF792F83B695A680A4B1B681344094A52
:103610001360386900F074F8074B1B680133064AE1
:103620001360FFF78FF800BF1837BD4680BD00BF9D
:1036300088100020781000208410002080B485B00D
:1036400000AF4FF44063BB60274BFB60FB6803F0A7
:103650000703002B0CD0FB680733FB60FB6823F0EB
:103660000703FB60BA68FB68D31A1F4A1344BB60A8
:10367000FB687B601D4A7B6813601C4B00225A600C
:103680007B68BA681344FB600822FB689B1AFB60E6
:10369000FB6823F00703FB60FB68154A1360144BBB
:1036A0001B6800225A60124B1B6800221A607B685C
:1036B0003B603B68FA68D21A3B685A600C4B1A6848
:1036C0003B681A603B685B680A4A13603B685B684A
:1036D000094A1360094B4FF000421A6000BF1437CB
:1036E000BD4680BC704700BF6C0400206C100020F9
:1036F000741000207C10002078100020881000201A
:1037000080B485B000AF7860274BFB6002E0FB68B7
:103710001B68FB60FB681B687A689A42F7D8FB68F5
:10372000BB60FB685B68BA6813447A689A4208D148
:10373000FB685A687B685B681A44FB685A60FB68E0
:103740007B607B68BB607B685B68BA681A44FB6817
:103750001B689A4218D1FB681A68144B1B689A427E
:103760000DD07B685A68FB681B685B681A447B68ED
:103770005A60FB681B681A687B681A6008E00B4B8C
:103780001A687B681A6003E0FB681A687B681A6035
:10379000FA687B689A4202D0FB687A681A6000BFB8
:1037A0001437BD4680BC70476C1000207410002098
:1037B0000EB46FF0004100B59CB01DAB02900690B6
:1037C000079104910848094953F8042B05910068B2
:1037D00002A9019300F09CF90022029B1A701CB010
:1037E0005DF804EB03B070475C0000200802FFFFA7
:1037F00003460244934200D1704703F8011BF9E7E6
:10380000014B1868704700BF5C00002070B50026AF
:103810000C4D0D4C641BA410A64209D100F07AFC9B
:1038200000260A4D0A4C641BA410A64205D170BDA7
:1038300055F8043B98470136EEE755F8043B9847A6
:103840000136F2E754440008544400085444000888
:1038500058440008704770470A44914200F1FF3312
:1038600000D1704710B511F8014B914203F8014F98
:10387000F9D110BD38B50546002940D051F8043CB7
:103880000C1F002BB8BFE41800F0DCF81C4A1368CA
:1038900033B9636014602846BDE8384000F0D8B8FA
:1038A000A34208D9206821188B4201BF19685B68C0
:1038B00009182160EDE71A465B680BB1A342FAD9FB
:1038C00011685018A0420BD120680144501883425F
:1038D0001160E0D118685B68084410605360DAE753
:1038E00002D90C232B60D6E7206821188B4201BF38
:1038F00019685B680918216063605460CBE738BDC4
:10390000CC11002070B50E4E0C463168054611B939
:1039100000F0AAFB30602146284600F0A5FB431CBE
:103920000AD0C41C24F00304A04207D0211A284660
:1039300000F09AFB013001D14FF0FF34204670BDFA
:10394000D01100202DE9F843CD1C25F003050835E2
:103950000C2D38BF0C25002D074601DBA94205D9E7
:103960000C2300263B603046BDE8F883DFF8D080AA
:1039700000F068F8D8F800301C465CBB2946384691
:10398000FFF7C0FF431C044655D1D8F80040264637
:10399000002E45D1002C48D023683146384604EB30
:1039A000030900F061FB81453FD1216838466D1A5B
:1039B0002946FFF7A7FF013037D023682B44236047
:1039C000D8F80030002B38D05A68A2422BD1002200
:1039D0005A600FE02268521B1FD40B2A17D96119B5
:1039E000A342256018BF5960636808BFC8F800107B
:1039F00062514B60384604F10B0600F029F826F0BE
:103A00000706231DF21AAED09B1BA350ABE7A342BF
:103A10006268DDD1C8F80020ECE723466468ACE7B3
:103A200034467668B4E71346CCE70C2338463B604F
:103A300000F00EF897E72560DCE75B60FFDE00BF73
:103A4000CC1100200148FFF705BF00BFC8110020BE
:103A50000148FFF700BF00BFC81100202DE9F04763
:103A60001F468E688246BE420C4690460B682CD894
:103A70008A8912F4906F26D06569096905EB4505BE
:103A8000A3EB010905EBD5757B1C4B446D109D42E2
:103A900038BF1D46530527D52946FFF753FF064675
:103AA00060B34A462169FFF7D7FEA38923F49063E8
:103AB00043F08003A38126614E4426603E46656143
:103AC000A5EB0905A560BE4200D93E4632464146F7
:103AD000206800F0AFFA0020A3689B1BA360236856
:103AE00033442360BDE8F0872A4600F0DBFA06463F
:103AF0000028E0D150462169FFF7BCFE0C23CAF82C
:103B00000030A3894FF0FF3043F04003A381E9E781
:103B10002DE9F04F98468B8907461B060D46144643
:103B20009DB00ED50B6963B94021FFF70BFF2860EC
:103B3000286120B90C233B604FF0FF30D0E04023D8
:103B40006B610023099320238DF8293030234FF037
:103B50000109CDF80C80DFF8A0818DF82A302346CA
:103B60009A4613F8012B0AB1252AF9D1BAEB040BB6
:103B70000BD05B46224629463846FFF76FFF0130DF
:103B800000F0A980099A5A4409929AF80030002B53
:103B900000F0A18000234FF0FF32CDE905230AF1A8
:103BA000010A049307938DF853301A935446052263
:103BB00014F8011B504800F067FA049AD8B9D006EF
:103BC00044BF20238DF85330110744BF2B238DF8B9
:103BD00053309AF800302A2B15D0544600204FF06D
:103BE0000A0C079A214611F8013B303B092B4DD9AD
:103BF000B0B1079214E0A0EB080309FA03F31343F2
:103C0000A2460493D2E7039B191D1B680391002B66
:103C1000BBBF5B4242F0020207930793B8BF049216
:103C200023782E2B0CD163782A2B34D1039B0234BA
:103C30001A1D1B680392002BB8BF4FF0FF3305938A
:103C4000DFF8B8A003225046217800F01DFA38B101
:103C50004022049BA0EB0A008240134301340493EA
:103C600014F8011B062226488DF8281000F00CFAE3
:103C7000002838D0234B1BBB039B073323F00703DB
:103C800008330393099B3344099368E70C460120EA
:103C90000CFB0232A6E700234FF00A0C1946013450
:103CA0000593204610F8012B303A092A03D9002B3E
:103CB000C6D00591C4E7044601230CFB0121F0E7BF
:103CC00003AB00932A4638460F4B04A9AFF300809C
:103CD000421C0646D6D1AB895B063FF52DAF09984D
:103CE0001DB0BDE8F08F03AB00932A463846064B63
:103CF00004A900F07DF8EBE71E4400082444000806
:103D000028440008000000005D3A00082DE9F04753
:103D1000164699468A680B6907469342B8BF134610
:103D2000336091F843200C46DDF820800AB101335E
:103D300033602368990642BF3368023333602568D5
:103D400015F0060506D104F1190AE36832689B1ADA
:103D5000AB422BDC94F84320131E226818BF0123CA
:103D6000920630D44946384604F14302C047013038
:103D700023D02368226903F00603042B14BF002517
:103D800033684FF0000608BFE56804F11A0408BF65
:103D9000ED1A54F8123C08BF25EAE5759342C4BFFA
:103DA0009B1AED18B5421AD1002008E001235246B3
:103DB00049463846C047013003D14FF0FF30BDE8D7
:103DC000F0870135C1E73020E11881F843005A1C23
:103DD00094F845102244023382F84310C2E70123CD
:103DE000224649463846C0470130E6D00136D9E779
:103DF0002DE9FF470F7E9146782F80460C469A4664
:103E00000C9D01F1430207D8622F0AD8002F00F061
:103E1000D580582F00F0C18004F1420584F842702B
:103E20003AE0A7F16303152BF6D801A151F823F06E
:103E3000893E00089D3E0008193E0008193E000812
:103E4000193E0008193E00089D3E0008193E000872
:103E5000193E0008193E0008193E0008A33F00085B
:103E6000C93E00085D3F0008193E0008193E0008E1
:103E7000C53F0008193E0008C93E0008193E000869
:103E8000193E0008653F00082B681A1D1B682A6050
:103E900004F1420584F842300123A0E020682B6839
:103EA000070603F10401296001D51E6803E04606F8
:103EB000FBD5B3F90060002E03DA2D23764284F897
:103EC00043300A23594812E02B682068191D2960E5
:103ED000050601D51E6802E04106FBD51E886F2F3E
:103EE0000CBF08230A235148002184F84310656859
:103EF000002DA8BF2168A560A4BF21F004012160A6
:103F00000EB9002D4BD01546B6FBF3F103FB11673C
:103F1000C75D05F8017D3746BB420E46F4D9082B34
:103F20000BD12368DE0708D5236961689942DEBF9B
:103F3000302305F8013C05F1FF35521B22614B4649
:103F400021464046CDF800A003AAFFF7DFFE01306E
:103F50004AD14FF0FF3004B0BDE8F087236843F04A
:103F6000200323607827324884F845702368296845
:103F70001F0651F8046B02D45F0648BFB6B2DF07D4
:103F800048BF43F02003296048BF23601EB923685F
:103F900023F0200323601023A6E72448E4E7154616
:103FA000BDE72B682668181D6169286035061B6807
:103FB00001D5196002E07006FBD519800023154673
:103FC0002361BCE72B6800211A1D2A601D68626806
:103FD000284600F059F808B1401B6060636823610F
:103FE000002384F84330AAE72A464946404623691D
:103FF000D0470130ADD023689B0713D4E068039B02
:104000009842B8BF1846A6E70123324649464046C3
:10401000D04701309DD00135E36803995B1AAB426C
:10402000F2DCEBE7002504F11906F5E72F44000860
:1040300040440008884210B501EB020402D98442D2
:10404000234607D8431EA14208D011F8012B03F8DC
:10405000012FF8E7014602448A4200D110BD13F84F
:10406000014D02F8014DF7E738B50023054D044630
:1040700008462B60FCF7F2FA431C02D12B6803B10F
:10408000236038BDC4110020034610B5C9B20244F4
:104090009342184601D1002003E0047801338C429A
:1040A000F6D110BD2DE9F041804614460E4621B9E7
:1040B0001146BDE8F041FFF745BC2AB9FFF7DAFB2E
:1040C00025462846BDE8F08100F01BF884420746EB
:1040D00002D8B4EB500F12D821464046FFF732FC0D
:1040E00005460028EDD0BC422246314628BF3A465C
:1040F000FFF7B2FB31464046FFF7BCFBE1E7354630
:10410000DFE751F8043C181F002BBCBF0B58C01848
:1041100070470000F8B500BFF8BC08BC9E46704769
:0C412000F8B500BFF8BC08BC9E46704714
:10412C00756E61626C6520746F2063726561746575
:10413C002071756575650D0A00000000496E746587
:10414C00676572207175657565206372656174654C
:10415C0064207375636365737366756C6C790D0A93
:10416C0000000000756E61626C6520746F206372D4
:10417C0065617465207374727563747572652071F2
:10418C00756575650D0A00005374727563747572EC
:10419C006520717565756520637265617465642051
:1041AC007375636365737366756C6C790D0A0000C7
:1041BC00756E61626C6520746F20637265617465E5
:1041CC0020646174612073747275637475726520F8
:1041DC0071756575650D0A004461746120737472A4
:1041EC00756374757265207175657565206372658C
:1041FC0061746564207375636365737366756C6C49
:10420C00790D0A0064656661756C745461736B009A
:10421C001042000815050008000000000000000016
:10422C0080000000000000000000000043414E74BC
:10423C00736B0000384200086D0400080000000099
:10424C0000000000800000000000000000000000E2
:10425C00636F6E74726F6C6C657254736B000000DC
:10426C005C420008B50400080000000000000000DB
:10427C008000000000000000000000002053756367
:10428C006365737366756C6C792073656E742074DA
:10429C006865206E756D62657220746F2074686538
:1042AC002071756575650A4C656176696E6720537A
:1042BC00454E4445525F485054205461736B0A0A72
:1042CC000A0000004572726F7220696E205265639D
:1042DC00656976696E672066726F6D2051756575BC
:1042EC00650A0A0052656365697665642025642059
:1042FC000D0A000048656C6C6F2066726F6D207340
:10430C00656E64657220310D0A00000053656E7491
:10431C0020737472756374207375636365737300B3
:10432C00726563656976696E672066726F6D20735E
:10433C0074727563742071756575650D0A000000E3
:10434C0052656376640D0A3A20636F756E746572FC
:10435C00203D2025640D0A206C6172676520766112
:10436C006C7565203D2025750D0A20737472696E7D
:10437C0067203D2025730D0A0A0000005265636515
:10438C00697665643A2025640D0A000043414E426B
:10439C005553000053656E742066726F6D20434157
:1043AC004E425553207375636365737300000000B0
:1043BC0053656E742066726F6D2043414E425553A7
:1043CC00206661696C6564007372633A2025732CF6
:1043DC0020646174613A202564200A2000000000EA
:1043EC0049444C45000000000000000000000000A3
:1043FC00010203040607080900000000010203047F
:10440C0002030405060708090A0B0C0D0E0F101009
:10441C000102232D302B2000686C4C00656667452B
:10442C004647003031323334353637383941424320
:10443C0044454600303132333435363738396162D1
:08444C006364656600000000D6
:044454003501000826
:044458001101000846
:10445C0000127A001000000001000000AAAAAAAA0B
:10446C00000000008C100020F41000205C110020D3
:10447C000000000000000000000000000000000030
:10448C000000000000000000000000000000000020
:10449C000000000000000000000000000000000010
:1044AC0000000000000000000000000010000020D0
:04000005080006D514
:00000001FF
